S01300007333326B3134385F6C65642E737265639D
S113000000700020C91D0000831C0000271E000092
S11300104F1E00005B1E0000B11E00000000000027
S1130020000000000000000000000000B31E0000FB
S1130030B51E000000000000B71E0000B91E00003D
S1130040AD1E0000AD1E0000AD1E0000AD1E000080
S1130050AD1E0000AD1E0000AD1E0000AD1E000070
S1130060AD1E0000AD1E0000AD1E0000AD1E000060
S1130070AD1E0000AD1E0000AD1E0000AD1E000050
S11303F0AD1E0000AD1E0000AD1E0000FFFFFFFF9C
S1130400FFFFFFFFFFFFFFFFFFFFFFFFFE7FFFFF79
S113041010B40469A409A401C9B2002901D00121BE
S113042000E0002111F001010C43D2B2002A01D0F6
S1130430012200E000220199520012F0020214434A
S11304409B0013F00C032343090111F030010B430B
S1130450036110BC7047026C32F01002C9B200296B
S113046001D0012100E00021090111F010010A432B
S113047002647047026C32F00802C9B2002901D04C
S1130480012100E00021C90011F008010A430264BF
S11304907047026C32F00402C9B2002901D0012174
S11304A000E00021890011F004010A43026470474E
S11304B0026C32F00202C9B2002901D0012100E02D
S11304C00021490011F002010A4302647047026CE2
S11304D052085200C9B2002901D0012100E00021D4
S11304E011F001010A4302647047C368C9B20029CC
S11304F005D0022913D00AD3032918D01CE033F005
S11305004073120612F040721A43130014E033F0E1
S11305104063920612F040621A4313000CE033F079
S11305204053120712F040521A43130004E023F020
S1130530404353EA8273FFE7C360704710B44468D2
S113054034F400644460446834F47F64C9B200291C
S113055001D0012100E00021C90211F400610C4323
S1130560120112F0F00222431B0213F4E0631A4357
S1130570426010BC7047426832F48052090311F49F
S11305808051114341607047816E0021816670473C
S1130590C9B2002901D0012100E00021090711F0AE
S11305A08051520012F00E020A4313F001031A4361
S11305B0826670470069C0F30360704710B4019C01
S11305C0090611F07061120412F4702211431B0128
S11305D013F0F003194314F00F042143416110BCDC
S11305E0704710B4019C090611F07061120412F4F2
S11305F0702211431B0113F0F003194314F00F048C
S11306002143816110BC704710B4019C090611F0AC
S11306107061120412F4702211431B0113F0F003F1
S1130620194314F00F042143C16110BC704711F049
S11306300701120212F4E0621143C0F80413704778
S113064011F00701120212F4E0621143C0F804121F
S1130650704711F00701120212F4E0621143C0F86E
S11306600411704711F00701120212F4E062114301
S1130670C0F804167047026A32F07062090611F07D
S11306807061114301627047D0F80002C0F340600A
S1130690002801D0012000E00020C0B27047D0F84B
S11306A00002000E10F001007047D0F8080210F0AC
S11306B001007047D0F8001231F40001C0F80012B4
S11306C070470021C0F800127047C9B211F001014F
S11306D0C0F808127047C9B2002901D0012100E016
S11306E00021D2B2002A01D0012200E00022DBB2B4
S11306F0002B01D0012300E00023490011F0020186
S1130700920012F004021143DB0513F400031943B1
S113071051F00101C0F800127047D0F80003C0F393
S11307204060002801D0012000E00020C0B27047E2
S1130730D0F80003000E10F001007047D0F8080351
S113074010F003007047D0F8001331F40001C0F832
S1130750001370475FF08061C0F800137047C9B29E
S113076011F00301C0F808137047C9B2002901D081
S1130770002100E00121D2B2002A01D0012200E0D0
S11307800022C90011F00801D20512F4000211433D
S113079051F00101C0F800137047D0F80001C0F314
S11307A04060002801D0012000E00020C0B2704762
S11307B0D0F80001000E10F001007047D0F80011CD
S11307C031F40001C0F8001170475FF08061C0F897
S11307D000117047090111F03001D20012F0080233
S11307E011439B0013F004031943C0F80811704728
S11307F0C9B2002901D0012100E00021D2B2002AAF
S113080001D0012200E00022DBB2002B01D0012341
S113081000E00023090411F48031520412F4003280
S11308201143DB0513F40003194351F00101C0F82F
S113083000117047D0F80006C0F34060002801D0D2
S1130840012000E00020C0B27047D0F80006000E7E
S113085010F001007047D0F80806C0F3022070477A
S1130860D0F80806C0F304407047D0F8001631F4FD
S11308700001C0F8001670475FF08061C0F80016F0
S11308807047C9B2090211F4E061D2B2120412F441
S1130890F8121143C0F808167047C9B2002901D0F4
S11308A0012100E00021D2B2002A01D0012200E09F
S11308B00022DBB2002B01D0012300E00023090455
S11308C011F48031520412F400321143DB0513F4A5
S11308D00003194351F00101C0F80016704730B409
S11308E0D2B2002A01D0012500E00025039C029A1F
S11308F01B0613F0E063E40014F00804234312F031
S113090007021343AD0715F080452B43DFF8182584
S1130910C9B232F8111040F8213030BC7047D2B25D
S1130920002A0FD0DFF800250B00DBB232F81330B9
S1130930C9B232F8111050F8211051F0804140F83A
S113094023100EE0DFF8E0240B00DBB232F81330A2
S1130950C9B232F8111050F8211031F0804140F83A
S113096023107047827812F07F02C9B2002901D0A7
S1130970002100E0012152EAC112827070470A008E
S113098052B2002A01D520225118C9B2027912F0BC
S1130990E00211F01F01114301717047406900F03A
S11309A0FF00704738B5A2B00500002803D168469F
S11309B000F02EF96D46280000F015F80400200020
S11309C000B200280BD115F1440000F090F815F1A5
S11309D07C0000F051F815F1840000F008F92000C3
S11309E000B223B030BD38B504000025002C40D03F
S11309F000F0A1FB0500280000B2002803D120006C
S1130A0000F0CAFB0500280000B2002831D1DFF84D
S1130A1048150020086094F83000002801D0E06AEE
S1130A20086094F83500002805D094F83410DFF8F5
S1130A302C05FFF720FE94F84300002819D014F188
S1130A403601012000F07DFC0500280000B20028DA
S1130A5005D114F13A01022000F073FC05002800CE
S1130A6000B2002805D114F13E01032000F069FC16
S1130A700500280000B232BD7CB50400002C35D03E
S1130A806068002832D000252DE0DFF8D46400220D
S1130A906068052101FB05F1415C3000FFF73FFF71
S1130AA06068052101FB05F10844C0780190606885
S1130AB0052101FB05F108440079009060680521D7
S1130AC001FB05F1084483786068052101FB05F109
S1130AD0084442786068052101FB05F1415C30005F
S1130AE0FFF7FDFE6D1C20688542CED373BD38B57B
S1130AF004002078002806D0E378A2786178DFF833
S1130B005005FFF71BFD2079002808D0607900907C
S1130B10A379E279217ADFF83805FFF779FC94F8B4
S1130B202C0000281AD0DFF8285594F82D1028003E
S1130B30FFF7CDFC94F82E102800FFF7B9FC94F8C9
S1130B402F102800FFF7A5FC94F830102800FFF7B9
S1130B5091FC94F831102800FFF77DFC207B0028DD
S1130B6023D000200BE00100C9B204EB8101096924
S1130B70DFF8E0240300DBB242F82310401C01003C
S1130B80C9B20329EFD300250BE02800C0B204EB5F
S1130B908000C2692900C9B2DFF8B404FFF7A5FCDC
S1130BA06D1C2800C0B20428EFD394F8320000284A
S1130BB01CD0DFF89C542800FFF7E6FC94F83410AE
S1130BC02800FFF7D8FC0023002200212800FFF7AB
S1130BD0DFFC94F83300002808D094F8363094F8F9
S1130BE0352094F833102800FFF7D2FC31BD38B516
S1130BF00400207800280AD0DFF890556178280096
S1130C00FFF7B0FE94F902102800FFF7B8FE31BDDB
S1130C1000210121C17000210171012141710021D4
S1130C208171012101700121417001218170012133
S1130C30817301210173002141730021C1710121DC
S1130C40017201214172012180F830100021C1623A
S1130C5001214177DFF83815016100210175002178
S1130C60017701214175002181750221C17501219E
S1130C70017601214176012180F82810002180F8B5
S1130C802010002180F82710002180F821100C2169
S1130C9080F82210002180F82310012180F824100C
S1130CA0012180F82510012180F83510032180F8F6
S1130CB03410012180F84310032180F839100021F9
S1130CC080F83810012180F83710012180F836109F
S1130CD0022180F83D10012180F83C10002180F8A9
S1130CE03B10032180F83A10062180F841100021BE
S1130CF080F84010012180F83F10032180F83E1055
S1130D00DFF89014C0F880102021C167012180F819
S1130D104410002180F84510002180F8461000217D
S1130D2080F84710012180F84810012180F84C1008
S1130D30012180F84B10002180F84A10002180F82E
S1130D404910012180F87010012180F871100121EF
S1130D5080F87210012180F87310012180F874105A
S1130D60012180F87510012180F87B10012180F8A1
S1130D70501000214165002181650021C1650021D9
S1130D8004E0002200EB81031A66491C0429F8D30D
S1130D90012180F87610012180F87710002180F875
S1130DA07810002180F87910002180F87A10012150
S1130DB080F88410012180F88510002180F88610C5
S1130DC0704780B5DFF85807FFF7E8FD012805D024
S1130DD0042805D0802805D1032004E0012002E086
S1130DE0022000E00420C0B202BD70B5050000205E
S1130DF0FFF7E7FF2900C0B200F0A3FA06003000B5
S1130E0000B200280CD10A24641E5448FFF7D2FB18
S1130E10E978884201D0002CF6D1002C00D10326B9
S1130E20300000B270BD0000201B0000FEB50600BB
S1130E300C000025002C13D100208DF804000120A3
S1130E408DF8050000208DF8060001208DF80100C2
S1130E5001208DF8020001208DF800006C46FFE7A8
S1130E603E4F3800FFF710FC002801D0022505E0B2
S1130E703800FFF71FFC3800FFF723FCF6B2002E02
S1130E801ED0280000B200281AD1A2786178380058
S1130E90FFF7D6FB21783800FFF717FCA3796279B6
S1130EA021793800FFF717FC642400E0641E00F089
S1130EB0F5FA002801D1002CF8D1002C00D103252B
S1130EC0280000B2FEBDFEB506000C000025002C73
S1130ED010D101208DF8050000208DF806000120B6
S1130EE08DF8010001208DF8020000208DF800002B
S1130EF06C46FFE7194F3800FFF70FFC002801D0BC
S1130F00022505E03800FFF71EFC3800FFF722FC3D
S1130F10F6B2002E1DD0280000B2002819D1A27804
S1130F2061783800FFF783FB21783800FFF717FC5E
S1130F30A27961793800FFF718FC642400E0641E8C
S1130F4000F0BEFA002801D1002CF8D1002C00D109
S1130F500325280000B2FEBD20000020004006400A
S1130F6000500640F8B584B006000C000025002CA3
S1130F7018D100208DF8040000208DF80C00012009
S1130F808DF8080001208DF8090001208DF8050076
S1130F9000208DF8060002208DF807007C480090A0
S1130FA06C46FFE7DFF87C753800FFF7F6FB002896
S1130FB001D0022509E03800FFF700FC3800FFF7F4
S1130FC004FC0020DFF860150860F6B2002E3BD068
S1130FD0280000B2002837D1627A217A3800FFF75E
S1130FE038FB6379A279E1793800FFF7F3FB2079C4
S1130FF0002803D002280FD007D314E0237B00225B
S113100000213800FFF7F4FB0DE0237B00220121CF
S11310103800FFF7EDFB06E0237B012201213800B5
S1131020FFF7E6FBFFE72068DFF8FC140860DFF851
S1131030FC4400E0641E00F024FA002801D1002CD6
S1131040F8D1002C00D10325280000B205B0F0BD72
S11310500080044014000020FEB506000C000025AA
S1131060002C16D100208DF8000000208DF8070018
S113107001208DF8040001208DF8050000208DF872
S1131080010007208DF8020000208DF803006C4653
S1131090FFE7DFF890743800FFF7CCFB002801D09D
S11310A0022505E03800FFF7E0FB3800FFF7E4FB1A
S11310B0F6B2002E3CD0280000B2002838D100F04F
S11310C0E0F96178491CB0FBF1F0627921793800CC
S11310D0FFF7C8FAA27861783800FFF7D2FB2078CE
S11310E0002803D002280FD007D314E0E3790022AC
S11310F000213800FFF7D1FB0DE0E3790022012144
S11311003800FFF7CAFB06E0E37901220121380029
S1131110FFF7C3FBFFE74FF47A7400E0641E00F0AE
S1131120E1F9002801D1002CF8D1002C00D10325CD
S1131130280000B2FEBD1CB50024DFF8E803FFF769
S113114039FA03281ED000F0BBF9002804D100218D
S11311500120FFF7B8FE0400200000B2002811D1DE
S113116003208DF80300DFF8C803C1788DF802105E
S113117001798DF8011040798DF800006846FFF779
S113118034FE0400200000B216BD000000D0074069
S113119000127A002C85FF1F7CB50400002021007A
S11311A0E078FFF743FE0600300000B2002810D1BB
S11311B014F11001607FFFF7D5FE0600300000B285
S11311C0002806D114F1200194F82800FFF744FF09
S11311D00600FFF7F6FD012804D00CD3032807D03E
S11311E003D308E014F1360506E014F13A0503E0F0
S11311F014F13E0500E00025300000B2002840F064
S11312008380E878032866D1012694F82800002812
S113121011D006208DF80300DFF81803417A8DF809
S11312200210817A8DF80110C07A8DF800006846AA
S1131230FFF7DBFD0600607F002815D0300000B208
S1131240012811D101208DF80300DFF8E80281792B
S11312508DF80210C1798DF80110007A8DF8000024
S11312606846FFF7C2FD0600E078002815D030007C
S113127000B2012811D102208DF80300DFF8B40276
S113128001788DF8021041788DF8011080788DF87E
S113129000006846FFF7A9FD0600300000B20028F0
S11312A032D1E11DA07BFFF70EFE0600300000B234
S11312B0002829D1E8788DF80300A8788DF8020079
S11312C068788DF8010028788DF800006846FFF7EB
S11312D08CFD060018E0E8788DF80300A8788DF8F6
S11312E0020068788DF8010028788DF800006846BF
S11312F0FFF77BFD0600300000B2002804D1E11D99
S1131300A07BFFF7E0FD0600300000B276BD80B59B
S11313100021C0B2012806D0022807D0032808D033
S1131320062809D00BE000F0ACF809E000F0B6F8AC
S113133006E000F0C5F803E000F0D4F800E0002077
S113134002BD2DE9F84381460C0000250020A67853
S1131350761CA7787F1C6078401C474394F8028071
S113136018F101082078401C00FB08F8E078FFF72A
S1131370CEFF00095FFA89F9B9F1010F05D07CD3DA
S1131380B9F1030F51D028D377E0DFF8C0110C2254
S1131390E3785343CB581B095E43864211D3E37869
S11313A053430B445B681B095F43874209D3E378CB
S11313B002FB03F211448968090901FB08F880451E
S11313C001D2012508E0207800906378A278E178C2
S11313D0DFF85001FFF7F2F84FE0DFF874210C2139
S11313E0E3784B43D3581B095E43864211D3E37819
S11313F04B4313445B681B095F43874209D3E3787B
S113140001FB03F111448968090901FB08F88045CF
S113141001D2012508E0207800906378A278E17871
S1131420DFF80001FFF7DDF827E00C21DFF82421C5
S1131430E3784B43D3581B095E43864211D3E378C8
S11314404B4313445B681B095F43874209D3E3782A
S113145001FB03F111448968090901FB08F880457F
S113146001D2012508E0207800906378A278E17821
S1131470DFF8B000FFF7C8F8FFE7280000B2BDE8C6
S1131480F28380B5DFF89C00FFF792F9002803D0BF
S1131490DFF89400006800E0002002BD38B50024A5
S11314A0DFF880502800FFF7FAF8002806D028005B
S11314B0FFF7FBF8002801D0DFF8B441200032BD6B
S11314C010B5DFF860402000FFF732F9002807D09C
S11314D02000FFF733F9DFF89C1151F8200000E0F9
S11314E0002010BD38B5DFF83C502800FFF7ADF9F7
S11314F0002811D0FFF7C5FF0400002C0BD02800F2
S1131500FFF7A9F9401CB4FBF0F42800FFF7A8F991
S113151010304443640800E00024200032BD000081
S113152000E00740004006402400002088E7300027
S11315308C1E0000981E000010B44F4C20602171D6
S1131540A26023736373002010BC7047D81C000092
S1131550841C00002C1D00002DE9FC4180460E0077
S113156000248DF800808DF8016000F097F8424D5A
S1131570287B687301208DF80200002700E07F1C9F
S11315803800297BC0B2884216D2A8683900C9B293
S113159050F82120002AF2D010790228EFD0916867
S11315A06846126890470028E9D06F733000C0B2D3
S11315B00028E4D140F20314200000B2002803D034
S11315C03000C0B2012811D128684146C9B250F890
S11315D0210000F053F80400200000B2002801D1DB
S11315E0012000E0002085F8058000E00020C0B262
S11315F0002822D002208DF80200002700E07F1C82
S11316003800297BC0B288422BD2A8683900C9B2FD
S113161050F82120002AF2D010790128EFD09168E7
S11316206846126890470028E9D06F733000C0B252
S11316300028E4D14FF4827413E000208DF80200F6
S113164000E07F1EA8683900C9B250F82120002AA2
S113165003D091686846126890473800C0B20028E9
S1131660EFD100F00FF8200000B2BDE8F6810000D1
S113167000127A00A41E00000400002080B5FFF7C9
S113168091F902BD08480168012906DB0168491E79
S113169001600068012800DA62B6704772B6024839
S11316A00168491C016070472800002041010200C4
S11316B0004201020000460102000047010200004E
S11316C048010200004A010200004B010200004CE4
S11316D0010200004401020000450102000049012A
S11316E00200003C010200003D010200003E010234
S11316F000003F0102000043010200002901000034
S1131700002A010000002B010000002C0100000051
S11317103A010000003701000000380100000032E7
S11317200100000034010000003501000000360112
S11317300000002D010000002E010000002F010018
S1131740000030010000003101000000010101012E
S113175001010000010100000100010000127A00F3
S113176000010003010100000001000000000C0062
S11317700101000001000000000000000000000062
S1131780030101000003030001020301000600013C
S1131790010100000103000101000000000000003D
S11317A00000000000000000000000000000000035
S11317B00000000000000000000000000101010121
S11317C00101010100000000200000000084FF1F4F
S11317D001010000A084FF1F410102000042010238
S11317E0000029010000002A010000002B01000074
S11317F0002C01000000340100000035010000004D
S1131800360100000043010200003A010000003CE0
S1131810010200003D010200003E010200003F0100
S113182002000044010200004501020000460102DA
S113183000004701020000480102000049010200C3
S1131840004A010200004B010200004C01020000AA
S1131850370100000038010000002D010000002EB7
S1131860010000002F0100000030010000003101E0
S1131870000000320100000000B004400A00000033
S1131880000000010000000080F00F400100000093
S113189000D0044008000000000000010000000027
S11318A000F10F400100000010B4036801248C40D3
S11318B0A343D2B212FA01F11943016010BC70477C
S11318C010B40300FF20624CA34225D100290AD0A2
S11318D001290CD00D290ED00E2910D00F2912D0B9
S11318E0102914D017E052F00102100024E052F045
S11318F00202100020E052F0040210001CE052F03A
S11319000802100018E012F00E02100014E012F0A9
S11319100D02100010E00FE04E4CA3420CD1002940
S113192002D0012904D007E012F00B02100003E0FA
S113193012F007021000FFE710BC704770B50400F6
S11319402068616850F82150207A002803D00228CA
S113195009D003D30CE035F0020509E06D086D00F1
S113196055F0020504E055F0020555F00105FFE7C6
S113197035F01005607A55EA001535F04005A07A77
S1131980800110F04000054335F4E065E07A010081
S1131990C9B2082913D1304E326812F00F026168BF
S11319A02068FFF78DFFFF2808D031680909090175
S11319B03160316810F00F00084330600020C0B27D
S11319C0000210F4E060054335F40045207B55EA3D
S11319D0C03535F47025607B000410F47020054395
S11319E0A07B002803D035F0807555F08075206801
S11319F0616840F821502068D0F8C0100122606866
S1131A0012FA00F08143E37B606883401943206845
S1131A10C0F8C010E07A012819D120694569207DF9
S1131A20002802D0012804D007E060688240954372
S1131A3003E0606882401543FFE7207D012804D15C
S1131A40627D61682069FFF72FFF2069456170BDE1
S1131A5000A0044000B00440048004402DE9F04399
S1131A60204B214E214F224CDFF888C0DFF888E05C
S1131A70224DDFF88C8023482349244A05E096F858
S1131A80009083F800905B1C761CB742F7D1E645C2
S1131A9009D09CF800302370641C1CF1010CF6E79B
S1131AA000232B706D1CA845FAD18A4204D00B7810
S1131AB00370491C401CF8E70021002006E0144A8A
S1131AC052F82020134B43F82020401C124AB0EB5C
S1131AD0920FF4D30F48114AC9B252F8211008608A
S1131AE0BDE8F0830084FF1FAC160000A8180000B6
S1131AF0FC85FF1FBA1E0000BA1E00000000002073
S1131B00340000200000000000000000000000007D
S1131B10000000000080FF1F00040000A81E000059
S1131B2000000000000000000000000000000000B1
S1131B3000000000000000000000000000000000A1
S1131B400000000000000000000000000000000091
S1131B500000000000000000000000000000000081
S1131B600000000000000000000000000000000071
S1131B700000730032002100610049004A004B005C
S1131B804C004D003D000000240025002B003600D1
S1131B903100000020000000380039003A0026001F
S1131BA000003B0027005A00660037002C002D007F
S1131BB02E0040006A006B006C0000000000000072
S1131BC002E00A68521C0A6016490A688242F8DB7D
S1131BD000200860704738B50023134A01211348D8
S1131BE0FFF7AAFC00210020FFF7B6FC10490220F1
S1131BF000F032F80F4C00220821200000F03CF8DD
S1131C000D4D2800FFF7DCFF01220821200000F021
S1131C1033F82800FFF7D4FF084908680028E9D002
S1131C20086832BD30000020000000202885FF1F16
S1131C30CC85FF1F00F10F40E09304002C0000202E
S1131C4010B4036801248C40A343D2B212FA01F108
S1131C501943016010BC704770B504000D000026E4
S1131C6006E0182000FB06F02844FFF767FE761C08
S1131C70A642F6D3002070BD80B5D2B2FFF7E0FFD4
S1131C8001BDFEE7000000000000000000000000AD
S1131C9000093D0000093D0040420F0000093D00DD
S1131CA000093D0040420F0000093D0000093D00CD
S1131CB040420F000000000000000000000000008F
S1131CC000000000000000000000000000093D00CA
S1131CD000093D0040420F00000000000000000029
S1131CE00000000000B4C404006CDC02B0F39601F0
S1131CF000B4C404006CDC02B0F3960100B4C40464
S1131D00006CDC02B0F3960100000000000000004B
S1131D1000000000000000000000000000000000BF
S1131D2000B4C404005A6202B0F39601000000003B
S1131D30000000000000000000FCAC06007E56031A
S1131D40003FAB0100FCAC06007E5603003FAB0134
S1131D5000FCAC06007E5603003FAB01000000000F
S1131D60000000000000000000000000000000006F
S1131D700000000000FCAC06007E5603003FAB01EF
S1131D800B48016851F4700101600A48016831F0A0
S1131D9080410160084809490160006842F220104E
S1131DA0074908604FF6FF70064908607047000055
S1131DB088ED00E034EF00E00420054020C528D978
S1131DC0002005400820054072B6002100220023AF
S1131DD00024002500260027B846B946BA46BB466B
S1131DE0BC4605488546054880470548804762B695
S1131DF0FFF7F1FEFEE7000000700020811D0000E7
S1131E005D1A00004EF68851CEF20001086840F4D5
S1131E1070000860BFF34F8FBFF36F8F4FF00170F6
S1131E20E1EE100A7047FEE700F00DF8002801D03B
S1131E30AFF30080AFF300800020AFF30080FFF722
S1131E40CAFE00F002F80120704700F001B8FEE776
S1131E500746384600F002F8FBE7FEE780B5AFF32B
S1131E600080024A11001820ABBEFBE726000200E6
S1131E700548014603B4684680F30988AFF300803F
S1131E80FFF7C0FFFFF7D0FFA5EDF5FE000001004E
S1131E90010300010102010100000100010300012E
S1131EA001020101006CDC0208ED00E0FFF7FEBF57
S10D1EB0FEE7FEE7FEE7FEE7FEE7AB
S9031E716D
